{
  "contractName": "Problem5",
  "abi": [
    {
      "inputs": [],
      "stateMutability": "nonpayable",
      "type": "constructor"
    },
    {
      "inputs": [
        {
          "internalType": "address",
          "name": "add",
          "type": "address"
        },
        {
          "internalType": "address[]",
          "name": "tokens",
          "type": "address[]"
        }
      ],
      "name": "getBalances",
      "outputs": [
        {
          "components": [
            {
              "internalType": "address",
              "name": "TokenAddr",
              "type": "address"
            },
            {
              "internalType": "uint256",
              "name": "amount",
              "type": "uint256"
            }
          ],
          "internalType": "struct Problem5.returnObject[]",
          "name": "",
          "type": "tuple[]"
        }
      ],
      "stateMutability": "view",
      "type": "function"
    }
  ],
  "bytecode": "0x608060405234801561001057600080fd5b50610632806100206000396000f3fe608060405234801561001057600080fd5b506004361061002b5760003560e01c80636a385ae914610030575b600080fd5b61004a6004803603810190610045919061034e565b610060565b60405161005791906104b0565b60405180910390f35b60608060005b835181101561017857604051806040016040528085838151811061008d5761008c6104d2565b5b602002602001015173ffffffffffffffffffffffffffffffffffffffff1681526020018583815181106100c3576100c26104d2565b5b602002602001015173ffffffffffffffffffffffffffffffffffffffff166370a08231886040518263ffffffff1660e01b81526004016101039190610510565b602060405180830381865afa158015610120573d6000803e3d6000fd5b505050506040513d601f19601f820116820180604052508101906101449190610557565b81525082828151811061015a576101596104d2565b5b60200260200101819052508080610170906105b3565b915050610066565b508091505092915050565b6000604051905090565b600080fd5b600080fd5b600073ffffffffffffffffffffffffffffffffffffffff82169050919050565b60006101c282610197565b9050919050565b6101d2816101b7565b81146101dd57600080fd5b50565b6000813590506101ef816101c9565b92915050565b600080fd5b6000601f19601f8301169050919050565b7f4e487b7100000000000000000000000000000000000000000000000000000000600052604160045260246000fd5b610243826101fa565b810181811067ffffffffffffffff821117156102625761026161020b565b5b80604052505050565b6000610275610183565b9050610281828261023a565b919050565b600067ffffffffffffffff8211156102a1576102a061020b565b5b602082029050602081019050919050565b600080fd5b60006102ca6102c584610286565b61026b565b905080838252602082019050602084028301858111156102ed576102ec6102b2565b5b835b81811015610316578061030288826101e0565b8452602084019350506020810190506102ef565b5050509392505050565b600082601f830112610335576103346101f5565b5b81356103458482602086016102b7565b91505092915050565b600080604083850312156103655761036461018d565b5b6000610373858286016101e0565b925050602083013567ffffffffffffffff81111561039457610393610192565b5b6103a085828601610320565b9150509250929050565b600081519050919050565b600082825260208201905092915050565b6000819050602082019050919050565b6103df816101b7565b82525050565b6000819050919050565b6103f8816103e5565b82525050565b60408201600082015161041460008501826103d6565b50602082015161042760208501826103ef565b50505050565b600061043983836103fe565b60408301905092915050565b6000602082019050919050565b600061045d826103aa565b61046781856103b5565b9350610472836103c6565b8060005b838110156104a357815161048a888261042d565b975061049583610445565b925050600181019050610476565b5085935050505092915050565b600060208201905081810360008301526104ca8184610452565b905092915050565b7f4e487b7100000000000000000000000000000000000000000000000000000000600052603260045260246000fd5b61050a816101b7565b82525050565b60006020820190506105256000830184610501565b92915050565b610534816103e5565b811461053f57600080fd5b50565b6000815190506105518161052b565b92915050565b60006020828403121561056d5761056c61018d565b5b600061057b84828501610542565b91505092915050565b7f4e487b7100000000000000000000000000000000000000000000000000000000600052601160045260246000fd5b60006105be826103e5565b91507fffffffffffffffffffffffffffffffffffffffffffffffffffffffffffffffff8214156105f1576105f0610584565b5b60018201905091905056fea2646970667358221220fd198ecd745a5eb65036d452c489a19c7551c9e5c9e8ebad987de0d25dfa006e64736f6c634300080b0033",
  "immutableReferences": {},
  "source": "// SPDX-License-Identifier: MIT\npragma solidity >=0.4.22 <0.9.0;\n\n\ninterface IERC20 {\n    function balanceOf(address account) external view returns (uint256);\n}\n\n\ncontract Problem5 {\n\n    constructor() {\n    }\n\n    struct returnObject {\n        address TokenAddr;\n        uint256 amount;\n    }\n\n    function getBalances(address add, address[] memory tokens) public view returns (returnObject[] memory) {\n        returnObject[] memory ans;\n        for (uint i; i < tokens.length; i++) {\n            ans[i] = returnObject(tokens[i], IERC20(tokens[i]).balanceOf(add));\n        }\n        return ans;\n    }\n\n}\n\n\n\n//issue with deploying it to local network. the contract can get compiled successfully and the artifacts are written to build/contracts\n//but somehow truffle migrate does not deploy the contracts to the local network. have tried with multiple test networks to no avail\n//\n\n",
  "sourcePath": "/Users/emanuel/Downloads/switcheo/code-challenge/src/problem5/contracts/Problem5.sol",
  "compiler": {
    "name": "solc",
    "version": "0.8.11+commit.d7f03943.Emscripten.clang"
  },
  "schemaVersion": "3.4.10",
  "updatedAt": "2022-10-22T03:43:58.071Z",
  "devdoc": {
    "kind": "dev",
    "methods": {},
    "version": 1
  },
  "userdoc": {
    "kind": "user",
    "methods": {},
    "version": 1
  }
}